{
  "_format": "hh-sol-artifact-1",
  "contractName": "TokenWithSellTax",
  "sourceName": "contracts/TokenWithSellTax.sol",
  "abi": [
    {
      "inputs": [
        {
          "internalType": "string",
          "name": "name",
          "type": "string"
        },
        {
          "internalType": "string",
          "name": "symbol",
          "type": "string"
        },
        {
          "internalType": "uint256",
          "name": "totalSupply",
          "type": "uint256"
        },
        {
          "internalType": "address",
          "name": "_pancakeRouter",
          "type": "address"
        }
      ],
      "stateMutability": "nonpayable",
      "type": "constructor"
    },
    {
      "inputs": [
        {
          "internalType": "address",
          "name": "spender",
          "type": "address"
        },
        {
          "internalType": "uint256",
          "name": "allowance",
          "type": "uint256"
        },
        {
          "internalType": "uint256",
          "name": "needed",
          "type": "uint256"
        }
      ],
      "name": "ERC20InsufficientAllowance",
      "type": "error"
    },
    {
      "inputs": [
        {
          "internalType": "address",
          "name": "sender",
          "type": "address"
        },
        {
          "internalType": "uint256",
          "name": "balance",
          "type": "uint256"
        },
        {
          "internalType": "uint256",
          "name": "needed",
          "type": "uint256"
        }
      ],
      "name": "ERC20InsufficientBalance",
      "type": "error"
    },
    {
      "inputs": [
        {
          "internalType": "address",
          "name": "approver",
          "type": "address"
        }
      ],
      "name": "ERC20InvalidApprover",
      "type": "error"
    },
    {
      "inputs": [
        {
          "internalType": "address",
          "name": "receiver",
          "type": "address"
        }
      ],
      "name": "ERC20InvalidReceiver",
      "type": "error"
    },
    {
      "inputs": [
        {
          "internalType": "address",
          "name": "sender",
          "type": "address"
        }
      ],
      "name": "ERC20InvalidSender",
      "type": "error"
    },
    {
      "inputs": [
        {
          "internalType": "address",
          "name": "spender",
          "type": "address"
        }
      ],
      "name": "ERC20InvalidSpender",
      "type": "error"
    },
    {
      "inputs": [
        {
          "internalType": "address",
          "name": "owner",
          "type": "address"
        }
      ],
      "name": "OwnableInvalidOwner",
      "type": "error"
    },
    {
      "inputs": [
        {
          "internalType": "address",
          "name": "account",
          "type": "address"
        }
      ],
      "name": "OwnableUnauthorizedAccount",
      "type": "error"
    },
    {
      "inputs": [],
      "name": "ReentrancyGuardReentrantCall",
      "type": "error"
    },
    {
      "anonymous": false,
      "inputs": [
        {
          "indexed": true,
          "internalType": "address",
          "name": "owner",
          "type": "address"
        },
        {
          "indexed": true,
          "internalType": "address",
          "name": "spender",
          "type": "address"
        },
        {
          "indexed": false,
          "internalType": "uint256",
          "name": "value",
          "type": "uint256"
        }
      ],
      "name": "Approval",
      "type": "event"
    },
    {
      "anonymous": false,
      "inputs": [
        {
          "indexed": true,
          "internalType": "address",
          "name": "account",
          "type": "address"
        },
        {
          "indexed": false,
          "internalType": "bool",
          "name": "excluded",
          "type": "bool"
        }
      ],
      "name": "ExcludedFromTax",
      "type": "event"
    },
    {
      "anonymous": false,
      "inputs": [
        {
          "indexed": true,
          "internalType": "address",
          "name": "previousOwner",
          "type": "address"
        },
        {
          "indexed": true,
          "internalType": "address",
          "name": "newOwner",
          "type": "address"
        }
      ],
      "name": "OwnershipTransferred",
      "type": "event"
    },
    {
      "anonymous": false,
      "inputs": [
        {
          "indexed": true,
          "internalType": "address",
          "name": "from",
          "type": "address"
        },
        {
          "indexed": true,
          "internalType": "address",
          "name": "to",
          "type": "address"
        },
        {
          "indexed": false,
          "internalType": "uint256",
          "name": "value",
          "type": "uint256"
        }
      ],
      "name": "Transfer",
      "type": "event"
    },
    {
      "inputs": [],
      "name": "DEAD",
      "outputs": [
        {
          "internalType": "address",
          "name": "",
          "type": "address"
        }
      ],
      "stateMutability": "view",
      "type": "function"
    },
    {
      "inputs": [
        {
          "internalType": "address",
          "name": "owner",
          "type": "address"
        },
        {
          "internalType": "address",
          "name": "spender",
          "type": "address"
        }
      ],
      "name": "allowance",
      "outputs": [
        {
          "internalType": "uint256",
          "name": "",
          "type": "uint256"
        }
      ],
      "stateMutability": "view",
      "type": "function"
    },
    {
      "inputs": [
        {
          "internalType": "address",
          "name": "spender",
          "type": "address"
        },
        {
          "internalType": "uint256",
          "name": "value",
          "type": "uint256"
        }
      ],
      "name": "approve",
      "outputs": [
        {
          "internalType": "bool",
          "name": "",
          "type": "bool"
        }
      ],
      "stateMutability": "nonpayable",
      "type": "function"
    },
    {
      "inputs": [
        {
          "internalType": "address",
          "name": "account",
          "type": "address"
        }
      ],
      "name": "balanceOf",
      "outputs": [
        {
          "internalType": "uint256",
          "name": "",
          "type": "uint256"
        }
      ],
      "stateMutability": "view",
      "type": "function"
    },
    {
      "inputs": [],
      "name": "buyTaxPercent",
      "outputs": [
        {
          "internalType": "uint256",
          "name": "",
          "type": "uint256"
        }
      ],
      "stateMutability": "view",
      "type": "function"
    },
    {
      "inputs": [],
      "name": "decimals",
      "outputs": [
        {
          "internalType": "uint8",
          "name": "",
          "type": "uint8"
        }
      ],
      "stateMutability": "view",
      "type": "function"
    },
    {
      "inputs": [
        {
          "internalType": "address",
          "name": "account",
          "type": "address"
        },
        {
          "internalType": "bool",
          "name": "excluded",
          "type": "bool"
        }
      ],
      "name": "excludeFromTax",
      "outputs": [],
      "stateMutability": "nonpayable",
      "type": "function"
    },
    {
      "inputs": [
        {
          "internalType": "address",
          "name": "",
          "type": "address"
        }
      ],
      "name": "isExcludedFromMaxTx",
      "outputs": [
        {
          "internalType": "bool",
          "name": "",
          "type": "bool"
        }
      ],
      "stateMutability": "view",
      "type": "function"
    },
    {
      "inputs": [
        {
          "internalType": "address",
          "name": "",
          "type": "address"
        }
      ],
      "name": "isExcludedFromTax",
      "outputs": [
        {
          "internalType": "bool",
          "name": "",
          "type": "bool"
        }
      ],
      "stateMutability": "view",
      "type": "function"
    },
    {
      "inputs": [],
      "name": "name",
      "outputs": [
        {
          "internalType": "string",
          "name": "",
          "type": "string"
        }
      ],
      "stateMutability": "view",
      "type": "function"
    },
    {
      "inputs": [],
      "name": "owner",
      "outputs": [
        {
          "internalType": "address",
          "name": "",
          "type": "address"
        }
      ],
      "stateMutability": "view",
      "type": "function"
    },
    {
      "inputs": [],
      "name": "pancakePair",
      "outputs": [
        {
          "internalType": "address",
          "name": "",
          "type": "address"
        }
      ],
      "stateMutability": "view",
      "type": "function"
    },
    {
      "inputs": [],
      "name": "pancakeRouter",
      "outputs": [
        {
          "internalType": "contract IPancakeRouter",
          "name": "",
          "type": "address"
        }
      ],
      "stateMutability": "view",
      "type": "function"
    },
    {
      "inputs": [],
      "name": "renounceOwnership",
      "outputs": [],
      "stateMutability": "nonpayable",
      "type": "function"
    },
    {
      "inputs": [],
      "name": "sellTaxPercent",
      "outputs": [
        {
          "internalType": "uint256",
          "name": "",
          "type": "uint256"
        }
      ],
      "stateMutability": "view",
      "type": "function"
    },
    {
      "inputs": [
        {
          "internalType": "uint256",
          "name": "_sellTaxPercent",
          "type": "uint256"
        },
        {
          "internalType": "uint256",
          "name": "_buyTaxPercent",
          "type": "uint256"
        }
      ],
      "name": "setTaxPercentages",
      "outputs": [],
      "stateMutability": "nonpayable",
      "type": "function"
    },
    {
      "inputs": [],
      "name": "symbol",
      "outputs": [
        {
          "internalType": "string",
          "name": "",
          "type": "string"
        }
      ],
      "stateMutability": "view",
      "type": "function"
    },
    {
      "inputs": [],
      "name": "taxWallet",
      "outputs": [
        {
          "internalType": "address",
          "name": "",
          "type": "address"
        }
      ],
      "stateMutability": "view",
      "type": "function"
    },
    {
      "inputs": [],
      "name": "totalSupply",
      "outputs": [
        {
          "internalType": "uint256",
          "name": "",
          "type": "uint256"
        }
      ],
      "stateMutability": "view",
      "type": "function"
    },
    {
      "inputs": [
        {
          "internalType": "address",
          "name": "to",
          "type": "address"
        },
        {
          "internalType": "uint256",
          "name": "value",
          "type": "uint256"
        }
      ],
      "name": "transfer",
      "outputs": [
        {
          "internalType": "bool",
          "name": "",
          "type": "bool"
        }
      ],
      "stateMutability": "nonpayable",
      "type": "function"
    },
    {
      "inputs": [
        {
          "internalType": "address",
          "name": "from",
          "type": "address"
        },
        {
          "internalType": "address",
          "name": "to",
          "type": "address"
        },
        {
          "internalType": "uint256",
          "name": "value",
          "type": "uint256"
        }
      ],
      "name": "transferFrom",
      "outputs": [
        {
          "internalType": "bool",
          "name": "",
          "type": "bool"
        }
      ],
      "stateMutability": "nonpayable",
      "type": "function"
    },
    {
      "inputs": [
        {
          "internalType": "address",
          "name": "newOwner",
          "type": "address"
        }
      ],
      "name": "transferOwnership",
      "outputs": [],
      "stateMutability": "nonpayable",
      "type": "function"
    }
  ],
  "bytecode": "0x608060405260636009556000600a553480156200001b57600080fd5b50604051620017c9380380620017c98339810160408190526200003e916200082a565b33848460036200004f83826200093e565b5060046200005e82826200093e565b5050506001600160a01b0381166200009157604051631e4fbdf760e01b8152600060048201526024015b60405180910390fd5b6200009c816200032c565b5060016006556001600160a01b038116620000fa5760405162461bcd60e51b815260206004820152601d60248201527f526f757465722063616e6e6f74206265207a65726f2061646472657373000000604482015260640162000088565b600b80546001600160a01b03199081163317909155600780546001600160a01b0384169216821790556040805163c45a015560e01b8152905163c45a0155916004818101926020929091908290030181865afa1580156200015f573d6000803e3d6000fd5b505050506040513d601f19601f8201168201806040525081019062000185919062000a0a565b6001600160a01b031663c9c6539630600760009054906101000a90046001600160a01b03166001600160a01b031663ad5c46486040518163ffffffff1660e01b8152600401602060405180830381865afa158015620001e8573d6000803e3d6000fd5b505050506040513d601f19601f820116820180604052508101906200020e919062000a0a565b6040516001600160e01b031960e085901b1681526001600160a01b039283166004820152911660248201526044016020604051808303816000875af11580156200025c573d6000803e3d6000fd5b505050506040513d601f19601f8201168201806040525081019062000282919062000a0a565b600880546001600160a01b0319166001600160a01b039283161790556005805482166000908152600c6020526040808220805460ff199081166001908117909255600b54861684528284208054821683179055308452918320805483168217905561dead9092527f45117a726ea4f344045dc210793664a28d2d320b7e03f6bffdae553d24c3586c8054909116909117905554620003229116836200037e565b5050505062000ab4565b600580546001600160a01b038381166001600160a01b0319831681179093556040519116919082907f8be0079c531659141344cd1fd0a4f28419497f9722a3daafe3b4186f6b6457e090600090a35050565b6001600160a01b038216620003aa5760405163ec442f0560e01b81526000600482015260240162000088565b620003b860008383620003bc565b5050565b60008111620004205760405162461bcd60e51b815260206004820152602960248201527f5472616e7366657220616d6f756e74206d7573742062652067726561746572206044820152687468616e207a65726f60b81b606482015260840162000088565b6001600160a01b03831662000441576200043c83838362000615565b505050565b6001600160a01b038316620004a75760405162461bcd60e51b815260206004820152602560248201527f45524332303a207472616e736665722066726f6d20746865207a65726f206164604482015264647265737360d81b606482015260840162000088565b6001600160a01b0382166200050b5760405162461bcd60e51b815260206004820152602360248201527f45524332303a207472616e7366657220746f20746865207a65726f206164647260448201526265737360e81b606482015260840162000088565b6001600160a01b0383166000908152600c602052604081205460ff161580156200054e57506001600160a01b0383166000908152600c602052604090205460ff16155b15620005c9576008546001600160a01b039081169084160362000591576064600954836200057d919062000a45565b62000589919062000a65565b9050620005c9565b6008546001600160a01b0390811690851603620005c9576064600a5483620005ba919062000a45565b620005c6919062000a65565b90505b6000620005d7828462000a88565b90508115620005fa57600b54620005fa9086906001600160a01b03168462000615565b80156200060e576200060e85858362000615565b5050505050565b6001600160a01b0383166200064457806002600082825462000638919062000a9e565b90915550620006b89050565b6001600160a01b03831660009081526020819052604090205481811015620006995760405163391434e360e21b81526001600160a01b0385166004820152602481018290526044810183905260640162000088565b6001600160a01b03841660009081526020819052604090209082900390555b6001600160a01b038216620006d657600280548290039055620006f5565b6001600160a01b03821660009081526020819052604090208054820190555b816001600160a01b0316836001600160a01b03167fddf252ad1be2c89b69c2b068fc378daa952ba7f163c4a11628f55a4df523b3ef836040516200073b91815260200190565b60405180910390a3505050565b634e487b7160e01b600052604160045260246000fd5b600082601f8301126200077057600080fd5b81516001600160401b03808211156200078d576200078d62000748565b604051601f8301601f19908116603f01168101908282118183101715620007b857620007b862000748565b81604052838152602092508683858801011115620007d557600080fd5b600091505b83821015620007f95785820183015181830184015290820190620007da565b600093810190920192909252949350505050565b80516001600160a01b03811681146200082557600080fd5b919050565b600080600080608085870312156200084157600080fd5b84516001600160401b03808211156200085957600080fd5b62000867888389016200075e565b955060208701519150808211156200087e57600080fd5b506200088d878288016200075e565b93505060408501519150620008a5606086016200080d565b905092959194509250565b600181811c90821680620008c557607f821691505b602082108103620008e657634e487b7160e01b600052602260045260246000fd5b50919050565b601f8211156200043c57600081815260208120601f850160051c81016020861015620009155750805b601f850160051c820191505b81811015620009365782815560010162000921565b505050505050565b81516001600160401b038111156200095a576200095a62000748565b62000972816200096b8454620008b0565b84620008ec565b602080601f831160018114620009aa5760008415620009915750858301515b600019600386901b1c1916600185901b17855562000936565b600085815260208120601f198616915b82811015620009db57888601518255948401946001909101908401620009ba565b5085821015620009fa5787850151600019600388901b60f8161c191681555b5050505050600190811b01905550565b60006020828403121562000a1d57600080fd5b62000a28826200080d565b9392505050565b634e487b7160e01b600052601160045260246000fd5b808202811582820484141762000a5f5762000a5f62000a2f565b92915050565b60008262000a8357634e487b7160e01b600052601260045260246000fd5b500490565b8181038181111562000a5f5762000a5f62000a2f565b8082018082111562000a5f5762000a5f62000a2f565b610d058062000ac46000396000f3fe608060405234801561001057600080fd5b50600436106101425760003560e01c80637df405a4116100b8578063c21ebd071161007c578063c21ebd0714610293578063c6a30647146102a6578063cb4ca631146102b9578063dd62ed3e146102dc578063e7dbc23d14610315578063f2fde38b1461032857600080fd5b80637df405a41461024b5780638da5cb5b1461025457806395d89b4114610265578063a9059cbb1461026d578063b8c9d25c1461028057600080fd5b80632dc0562d1161010a5780632dc0562d146101ca578063313ce567146101dd578063658c27a9146101ec5780636fb1896c1461020f57806370a0823114610218578063715018a61461024157600080fd5b806303fd2a451461014757806306fdde031461016d578063095ea7b31461018257806318160ddd146101a557806323b872dd146101b7575b600080fd5b61015061dead81565b6040516001600160a01b0390911681526020015b60405180910390f35b61017561033b565b6040516101649190610a9d565b610195610190366004610b07565b6103cd565b6040519015158152602001610164565b6002545b604051908152602001610164565b6101956101c5366004610b31565b6103e7565b600b54610150906001600160a01b031681565b60405160128152602001610164565b6101956101fa366004610b6d565b600d6020526000908152604090205460ff1681565b6101a960095481565b6101a9610226366004610b6d565b6001600160a01b031660009081526020819052604090205490565b61024961040b565b005b6101a9600a5481565b6005546001600160a01b0316610150565b61017561041f565b61019561027b366004610b07565b61042e565b600854610150906001600160a01b031681565b600754610150906001600160a01b031681565b6102496102b4366004610b8f565b61043c565b6101956102c7366004610b6d565b600c6020526000908152604090205460ff1681565b6101a96102ea366004610bcb565b6001600160a01b03918216600090815260016020908152604080832093909416825291909152205490565b610249610323366004610bfe565b6104a3565b610249610336366004610b6d565b6104b6565b60606003805461034a90610c20565b80601f016020809104026020016040519081016040528092919081815260200182805461037690610c20565b80156103c35780601f10610398576101008083540402835291602001916103c3565b820191906000526020600020905b8154815290600101906020018083116103a657829003601f168201915b5050505050905090565b6000336103db8185856104f9565b60019150505b92915050565b6000336103f585828561050b565b61040085858561058a565b506001949350505050565b6104136105e9565b61041d6000610616565b565b60606004805461034a90610c20565b6000336103db81858561058a565b6104446105e9565b6001600160a01b0382166000818152600c6020908152604091829020805460ff191685151590811790915591519182527fea5814d1cf99e5f6aee98da410ea4adcdbe5ded97855de3b25144b0898d0be4a910160405180910390a25050565b6104ab6105e9565b600991909155600a55565b6104be6105e9565b6001600160a01b0381166104ed57604051631e4fbdf760e01b8152600060048201526024015b60405180910390fd5b6104f681610616565b50565b6105068383836001610668565b505050565b6001600160a01b03838116600090815260016020908152604080832093861683529290522054600019811015610584578181101561057557604051637dc7a0d960e11b81526001600160a01b038416600482015260248101829052604481018390526064016104e4565b61058484848484036000610668565b50505050565b6001600160a01b0383166105b457604051634b637e8f60e11b8152600060048201526024016104e4565b6001600160a01b0382166105de5760405163ec442f0560e01b8152600060048201526024016104e4565b61050683838361073d565b6005546001600160a01b0316331461041d5760405163118cdaa760e01b81523360048201526024016104e4565b600580546001600160a01b038381166001600160a01b0319831681179093556040519116919082907f8be0079c531659141344cd1fd0a4f28419497f9722a3daafe3b4186f6b6457e090600090a35050565b6001600160a01b0384166106925760405163e602df0560e01b8152600060048201526024016104e4565b6001600160a01b0383166106bc57604051634a1406b160e11b8152600060048201526024016104e4565b6001600160a01b038085166000908152600160209081526040808320938716835292905220829055801561058457826001600160a01b0316846001600160a01b03167f8c5be1e5ebec7d5bd14f71427d1e84f3dd0314c0f7b2291e5b200ac8c7c3b9258460405161072f91815260200190565b60405180910390a350505050565b6000811161079f5760405162461bcd60e51b815260206004820152602960248201527f5472616e7366657220616d6f756e74206d7573742062652067726561746572206044820152687468616e207a65726f60b81b60648201526084016104e4565b6001600160a01b0383166107b857610506838383610973565b6001600160a01b03831661081c5760405162461bcd60e51b815260206004820152602560248201527f45524332303a207472616e736665722066726f6d20746865207a65726f206164604482015264647265737360d81b60648201526084016104e4565b6001600160a01b03821661087e5760405162461bcd60e51b815260206004820152602360248201527f45524332303a207472616e7366657220746f20746865207a65726f206164647260448201526265737360e81b60648201526084016104e4565b6001600160a01b0383166000908152600c602052604081205460ff161580156108c057506001600160a01b0383166000908152600c602052604090205460ff16155b1561092f576008546001600160a01b03908116908416036108fc576064600954836108eb9190610c70565b6108f59190610c87565b905061092f565b6008546001600160a01b039081169085160361092f576064600a54836109229190610c70565b61092c9190610c87565b90505b600061093b8284610ca9565b9050811561095b57600b5461095b9086906001600160a01b031684610973565b801561096c5761096c858583610973565b5050505050565b6001600160a01b03831661099e5780600260008282546109939190610cbc565b90915550610a109050565b6001600160a01b038316600090815260208190526040902054818110156109f15760405163391434e360e21b81526001600160a01b038516600482015260248101829052604481018390526064016104e4565b6001600160a01b03841660009081526020819052604090209082900390555b6001600160a01b038216610a2c57600280548290039055610a4b565b6001600160a01b03821660009081526020819052604090208054820190555b816001600160a01b0316836001600160a01b03167fddf252ad1be2c89b69c2b068fc378daa952ba7f163c4a11628f55a4df523b3ef83604051610a9091815260200190565b60405180910390a3505050565b600060208083528351808285015260005b81811015610aca57858101830151858201604001528201610aae565b506000604082860101526040601f19601f8301168501019250505092915050565b80356001600160a01b0381168114610b0257600080fd5b919050565b60008060408385031215610b1a57600080fd5b610b2383610aeb565b946020939093013593505050565b600080600060608486031215610b4657600080fd5b610b4f84610aeb565b9250610b5d60208501610aeb565b9150604084013590509250925092565b600060208284031215610b7f57600080fd5b610b8882610aeb565b9392505050565b60008060408385031215610ba257600080fd5b610bab83610aeb565b915060208301358015158114610bc057600080fd5b809150509250929050565b60008060408385031215610bde57600080fd5b610be783610aeb565b9150610bf560208401610aeb565b90509250929050565b60008060408385031215610c1157600080fd5b50508035926020909101359150565b600181811c90821680610c3457607f821691505b602082108103610c5457634e487b7160e01b600052602260045260246000fd5b50919050565b634e487b7160e01b600052601160045260246000fd5b80820281158282048414176103e1576103e1610c5a565b600082610ca457634e487b7160e01b600052601260045260246000fd5b500490565b818103818111156103e1576103e1610c5a565b808201808211156103e1576103e1610c5a56fea2646970667358221220062a97b0a2a44f28eb81a16b62fdd4a489759fac53c7f32ecbf0a81eaf97dec764736f6c63430008140033",
  "linkReferences": {},
  "deployedLinkReferences": {}
}