{
  "_format": "hh-sol-artifact-1",
  "contractName": "TokenWithSellTax",
  "sourceName": "contracts/TokenWithSellTax.sol",
  "abi": [
    {
      "inputs": [
        {
          "internalType": "string",
          "name": "name",
          "type": "string"
        },
        {
          "internalType": "string",
          "name": "symbol",
          "type": "string"
        },
        {
          "internalType": "uint256",
          "name": "totalSupply",
          "type": "uint256"
        },
        {
          "internalType": "address",
          "name": "_taxWallet",
          "type": "address"
        },
        {
          "internalType": "address",
          "name": "_pancakeRouter",
          "type": "address"
        }
      ],
      "stateMutability": "nonpayable",
      "type": "constructor"
    },
    {
      "inputs": [
        {
          "internalType": "address",
          "name": "spender",
          "type": "address"
        },
        {
          "internalType": "uint256",
          "name": "allowance",
          "type": "uint256"
        },
        {
          "internalType": "uint256",
          "name": "needed",
          "type": "uint256"
        }
      ],
      "name": "ERC20InsufficientAllowance",
      "type": "error"
    },
    {
      "inputs": [
        {
          "internalType": "address",
          "name": "sender",
          "type": "address"
        },
        {
          "internalType": "uint256",
          "name": "balance",
          "type": "uint256"
        },
        {
          "internalType": "uint256",
          "name": "needed",
          "type": "uint256"
        }
      ],
      "name": "ERC20InsufficientBalance",
      "type": "error"
    },
    {
      "inputs": [
        {
          "internalType": "address",
          "name": "approver",
          "type": "address"
        }
      ],
      "name": "ERC20InvalidApprover",
      "type": "error"
    },
    {
      "inputs": [
        {
          "internalType": "address",
          "name": "receiver",
          "type": "address"
        }
      ],
      "name": "ERC20InvalidReceiver",
      "type": "error"
    },
    {
      "inputs": [
        {
          "internalType": "address",
          "name": "sender",
          "type": "address"
        }
      ],
      "name": "ERC20InvalidSender",
      "type": "error"
    },
    {
      "inputs": [
        {
          "internalType": "address",
          "name": "spender",
          "type": "address"
        }
      ],
      "name": "ERC20InvalidSpender",
      "type": "error"
    },
    {
      "inputs": [
        {
          "internalType": "address",
          "name": "owner",
          "type": "address"
        }
      ],
      "name": "OwnableInvalidOwner",
      "type": "error"
    },
    {
      "inputs": [
        {
          "internalType": "address",
          "name": "account",
          "type": "address"
        }
      ],
      "name": "OwnableUnauthorizedAccount",
      "type": "error"
    },
    {
      "inputs": [],
      "name": "ReentrancyGuardReentrantCall",
      "type": "error"
    },
    {
      "anonymous": false,
      "inputs": [
        {
          "indexed": true,
          "internalType": "address",
          "name": "owner",
          "type": "address"
        },
        {
          "indexed": true,
          "internalType": "address",
          "name": "spender",
          "type": "address"
        },
        {
          "indexed": false,
          "internalType": "uint256",
          "name": "value",
          "type": "uint256"
        }
      ],
      "name": "Approval",
      "type": "event"
    },
    {
      "anonymous": false,
      "inputs": [
        {
          "indexed": true,
          "internalType": "address",
          "name": "account",
          "type": "address"
        },
        {
          "indexed": false,
          "internalType": "bool",
          "name": "excluded",
          "type": "bool"
        }
      ],
      "name": "ExcludedFromMaxTx",
      "type": "event"
    },
    {
      "anonymous": false,
      "inputs": [
        {
          "indexed": true,
          "internalType": "address",
          "name": "account",
          "type": "address"
        },
        {
          "indexed": false,
          "internalType": "bool",
          "name": "excluded",
          "type": "bool"
        }
      ],
      "name": "ExcludedFromTax",
      "type": "event"
    },
    {
      "anonymous": false,
      "inputs": [
        {
          "indexed": true,
          "internalType": "address",
          "name": "previousOwner",
          "type": "address"
        },
        {
          "indexed": true,
          "internalType": "address",
          "name": "newOwner",
          "type": "address"
        }
      ],
      "name": "OwnershipTransferred",
      "type": "event"
    },
    {
      "anonymous": false,
      "inputs": [],
      "name": "SwapEnabled",
      "type": "event"
    },
    {
      "anonymous": false,
      "inputs": [
        {
          "indexed": false,
          "internalType": "uint256",
          "name": "sellTax",
          "type": "uint256"
        },
        {
          "indexed": false,
          "internalType": "uint256",
          "name": "buyTax",
          "type": "uint256"
        }
      ],
      "name": "TaxPercentagesUpdated",
      "type": "event"
    },
    {
      "anonymous": false,
      "inputs": [
        {
          "indexed": true,
          "internalType": "address",
          "name": "newWallet",
          "type": "address"
        }
      ],
      "name": "TaxWalletUpdated",
      "type": "event"
    },
    {
      "anonymous": false,
      "inputs": [],
      "name": "TradingEnabled",
      "type": "event"
    },
    {
      "anonymous": false,
      "inputs": [
        {
          "indexed": true,
          "internalType": "address",
          "name": "from",
          "type": "address"
        },
        {
          "indexed": true,
          "internalType": "address",
          "name": "to",
          "type": "address"
        },
        {
          "indexed": false,
          "internalType": "uint256",
          "name": "value",
          "type": "uint256"
        }
      ],
      "name": "Transfer",
      "type": "event"
    },
    {
      "inputs": [],
      "name": "DEAD",
      "outputs": [
        {
          "internalType": "address",
          "name": "",
          "type": "address"
        }
      ],
      "stateMutability": "view",
      "type": "function"
    },
    {
      "inputs": [
        {
          "internalType": "address",
          "name": "owner",
          "type": "address"
        },
        {
          "internalType": "address",
          "name": "spender",
          "type": "address"
        }
      ],
      "name": "allowance",
      "outputs": [
        {
          "internalType": "uint256",
          "name": "",
          "type": "uint256"
        }
      ],
      "stateMutability": "view",
      "type": "function"
    },
    {
      "inputs": [
        {
          "internalType": "address",
          "name": "spender",
          "type": "address"
        },
        {
          "internalType": "uint256",
          "name": "value",
          "type": "uint256"
        }
      ],
      "name": "approve",
      "outputs": [
        {
          "internalType": "bool",
          "name": "",
          "type": "bool"
        }
      ],
      "stateMutability": "nonpayable",
      "type": "function"
    },
    {
      "inputs": [
        {
          "internalType": "address",
          "name": "account",
          "type": "address"
        }
      ],
      "name": "balanceOf",
      "outputs": [
        {
          "internalType": "uint256",
          "name": "",
          "type": "uint256"
        }
      ],
      "stateMutability": "view",
      "type": "function"
    },
    {
      "inputs": [
        {
          "internalType": "address[]",
          "name": "accounts",
          "type": "address[]"
        },
        {
          "internalType": "bool",
          "name": "excluded",
          "type": "bool"
        }
      ],
      "name": "batchExcludeFromMaxTx",
      "outputs": [],
      "stateMutability": "nonpayable",
      "type": "function"
    },
    {
      "inputs": [
        {
          "internalType": "address[]",
          "name": "accounts",
          "type": "address[]"
        },
        {
          "internalType": "bool",
          "name": "excluded",
          "type": "bool"
        }
      ],
      "name": "batchExcludeFromTax",
      "outputs": [],
      "stateMutability": "nonpayable",
      "type": "function"
    },
    {
      "inputs": [],
      "name": "buyTaxPercent",
      "outputs": [
        {
          "internalType": "uint256",
          "name": "",
          "type": "uint256"
        }
      ],
      "stateMutability": "view",
      "type": "function"
    },
    {
      "inputs": [],
      "name": "decimals",
      "outputs": [
        {
          "internalType": "uint8",
          "name": "",
          "type": "uint8"
        }
      ],
      "stateMutability": "view",
      "type": "function"
    },
    {
      "inputs": [],
      "name": "emergencyWithdraw",
      "outputs": [],
      "stateMutability": "nonpayable",
      "type": "function"
    },
    {
      "inputs": [
        {
          "internalType": "address",
          "name": "token",
          "type": "address"
        },
        {
          "internalType": "uint256",
          "name": "amount",
          "type": "uint256"
        }
      ],
      "name": "emergencyWithdrawTokens",
      "outputs": [],
      "stateMutability": "nonpayable",
      "type": "function"
    },
    {
      "inputs": [],
      "name": "enableSwap",
      "outputs": [],
      "stateMutability": "nonpayable",
      "type": "function"
    },
    {
      "inputs": [],
      "name": "enableTrading",
      "outputs": [],
      "stateMutability": "nonpayable",
      "type": "function"
    },
    {
      "inputs": [
        {
          "internalType": "address",
          "name": "account",
          "type": "address"
        },
        {
          "internalType": "bool",
          "name": "excluded",
          "type": "bool"
        }
      ],
      "name": "excludeFromMaxTx",
      "outputs": [],
      "stateMutability": "nonpayable",
      "type": "function"
    },
    {
      "inputs": [
        {
          "internalType": "address",
          "name": "account",
          "type": "address"
        },
        {
          "internalType": "bool",
          "name": "excluded",
          "type": "bool"
        }
      ],
      "name": "excludeFromTax",
      "outputs": [],
      "stateMutability": "nonpayable",
      "type": "function"
    },
    {
      "inputs": [],
      "name": "getTaxInfo",
      "outputs": [
        {
          "internalType": "uint256",
          "name": "sellTax",
          "type": "uint256"
        },
        {
          "internalType": "uint256",
          "name": "buyTax",
          "type": "uint256"
        },
        {
          "internalType": "address",
          "name": "taxWalletAddress",
          "type": "address"
        }
      ],
      "stateMutability": "view",
      "type": "function"
    },
    {
      "inputs": [
        {
          "internalType": "address",
          "name": "",
          "type": "address"
        }
      ],
      "name": "isExcludedFromMaxTx",
      "outputs": [
        {
          "internalType": "bool",
          "name": "",
          "type": "bool"
        }
      ],
      "stateMutability": "view",
      "type": "function"
    },
    {
      "inputs": [
        {
          "internalType": "address",
          "name": "",
          "type": "address"
        }
      ],
      "name": "isExcludedFromTax",
      "outputs": [
        {
          "internalType": "bool",
          "name": "",
          "type": "bool"
        }
      ],
      "stateMutability": "view",
      "type": "function"
    },
    {
      "inputs": [],
      "name": "isSwapEnabled",
      "outputs": [
        {
          "internalType": "bool",
          "name": "",
          "type": "bool"
        }
      ],
      "stateMutability": "view",
      "type": "function"
    },
    {
      "inputs": [],
      "name": "isTradingEnabled",
      "outputs": [
        {
          "internalType": "bool",
          "name": "",
          "type": "bool"
        }
      ],
      "stateMutability": "view",
      "type": "function"
    },
    {
      "inputs": [],
      "name": "maxTxAmount",
      "outputs": [
        {
          "internalType": "uint256",
          "name": "",
          "type": "uint256"
        }
      ],
      "stateMutability": "view",
      "type": "function"
    },
    {
      "inputs": [],
      "name": "name",
      "outputs": [
        {
          "internalType": "string",
          "name": "",
          "type": "string"
        }
      ],
      "stateMutability": "view",
      "type": "function"
    },
    {
      "inputs": [],
      "name": "owner",
      "outputs": [
        {
          "internalType": "address",
          "name": "",
          "type": "address"
        }
      ],
      "stateMutability": "view",
      "type": "function"
    },
    {
      "inputs": [],
      "name": "pancakePair",
      "outputs": [
        {
          "internalType": "address",
          "name": "",
          "type": "address"
        }
      ],
      "stateMutability": "view",
      "type": "function"
    },
    {
      "inputs": [],
      "name": "pancakeRouter",
      "outputs": [
        {
          "internalType": "contract IPancakeRouter",
          "name": "",
          "type": "address"
        }
      ],
      "stateMutability": "view",
      "type": "function"
    },
    {
      "inputs": [],
      "name": "renounceOwnership",
      "outputs": [],
      "stateMutability": "nonpayable",
      "type": "function"
    },
    {
      "inputs": [],
      "name": "sellTaxPercent",
      "outputs": [
        {
          "internalType": "uint256",
          "name": "",
          "type": "uint256"
        }
      ],
      "stateMutability": "view",
      "type": "function"
    },
    {
      "inputs": [
        {
          "internalType": "uint256",
          "name": "_maxTxAmount",
          "type": "uint256"
        }
      ],
      "name": "setMaxTxAmount",
      "outputs": [],
      "stateMutability": "nonpayable",
      "type": "function"
    },
    {
      "inputs": [
        {
          "internalType": "uint256",
          "name": "_sellTax",
          "type": "uint256"
        },
        {
          "internalType": "uint256",
          "name": "_buyTax",
          "type": "uint256"
        }
      ],
      "name": "setTaxPercentages",
      "outputs": [],
      "stateMutability": "nonpayable",
      "type": "function"
    },
    {
      "inputs": [
        {
          "internalType": "address",
          "name": "_taxWallet",
          "type": "address"
        }
      ],
      "name": "setTaxWallet",
      "outputs": [],
      "stateMutability": "nonpayable",
      "type": "function"
    },
    {
      "inputs": [],
      "name": "swapEnabled",
      "outputs": [
        {
          "internalType": "bool",
          "name": "",
          "type": "bool"
        }
      ],
      "stateMutability": "view",
      "type": "function"
    },
    {
      "inputs": [],
      "name": "symbol",
      "outputs": [
        {
          "internalType": "string",
          "name": "",
          "type": "string"
        }
      ],
      "stateMutability": "view",
      "type": "function"
    },
    {
      "inputs": [],
      "name": "taxWallet",
      "outputs": [
        {
          "internalType": "address",
          "name": "",
          "type": "address"
        }
      ],
      "stateMutability": "view",
      "type": "function"
    },
    {
      "inputs": [],
      "name": "totalSupply",
      "outputs": [
        {
          "internalType": "uint256",
          "name": "",
          "type": "uint256"
        }
      ],
      "stateMutability": "view",
      "type": "function"
    },
    {
      "inputs": [],
      "name": "tradingEnabled",
      "outputs": [
        {
          "internalType": "bool",
          "name": "",
          "type": "bool"
        }
      ],
      "stateMutability": "view",
      "type": "function"
    },
    {
      "inputs": [
        {
          "internalType": "address",
          "name": "to",
          "type": "address"
        },
        {
          "internalType": "uint256",
          "name": "value",
          "type": "uint256"
        }
      ],
      "name": "transfer",
      "outputs": [
        {
          "internalType": "bool",
          "name": "",
          "type": "bool"
        }
      ],
      "stateMutability": "nonpayable",
      "type": "function"
    },
    {
      "inputs": [
        {
          "internalType": "address",
          "name": "from",
          "type": "address"
        },
        {
          "internalType": "address",
          "name": "to",
          "type": "address"
        },
        {
          "internalType": "uint256",
          "name": "value",
          "type": "uint256"
        }
      ],
      "name": "transferFrom",
      "outputs": [
        {
          "internalType": "bool",
          "name": "",
          "type": "bool"
        }
      ],
      "stateMutability": "nonpayable",
      "type": "function"
    },
    {
      "inputs": [
        {
          "internalType": "address",
          "name": "newOwner",
          "type": "address"
        }
      ],
      "name": "transferOwnership",
      "outputs": [],
      "stateMutability": "nonpayable",
      "type": "function"
    }
  ],
  "bytecode": "0x608060405260646009556000600a55600b805461ffff60a01b191690553480156200002957600080fd5b5060405162002532380380620025328339810160408190526200004c9162000afc565b33858560036200005d838262000c23565b5060046200006c828262000c23565b5050506001600160a01b0381166200009f57604051631e4fbdf760e01b8152600060048201526024015b60405180910390fd5b620000aa816200048e565b5060016006556001600160a01b038216620001125760405162461bcd60e51b815260206004820152602160248201527f5461782077616c6c65742063616e6e6f74206265207a65726f206164647265736044820152607360f81b606482015260840162000096565b6001600160a01b0381166200016a5760405162461bcd60e51b815260206004820152601d60248201527f526f757465722063616e6e6f74206265207a65726f2061646472657373000000604482015260640162000096565b600b80546001600160a01b038085166001600160a01b0319928316179092556007805492841692909116821790556040805163c45a015560e01b8152905163c45a0155916004818101926020929091908290030181865afa158015620001d4573d6000803e3d6000fd5b505050506040513d601f19601f82011682018060405250810190620001fa919062000cef565b6001600160a01b031663c9c6539630600760009054906101000a90046001600160a01b03166001600160a01b031663ad5c46486040518163ffffffff1660e01b8152600401602060405180830381865afa1580156200025d573d6000803e3d6000fd5b505050506040513d601f19601f8201168201806040525081019062000283919062000cef565b6040516001600160e01b031960e085901b1681526001600160a01b039283166004820152911660248201526044016020604051808303816000875af1158015620002d1573d6000803e3d6000fd5b505050506040513d601f19601f82011682018060405250810190620002f7919062000cef565b600880546001600160a01b0319166001600160a01b03929092169190911790556200032460648462000d2a565b600e556001600c6000620003406005546001600160a01b031690565b6001600160a01b03908116825260208083019390935260409182016000908120805495151560ff19968716179055600b549091168152600c909252808220805484166001908117909155308352908220805484168217905561dead82527f45117a726ea4f344045dc210793664a28d2d320b7e03f6bffdae553d24c3586c80549093168117909255600d90620003de6005546001600160a01b031690565b6001600160a01b03908116825260208083019390935260409182016000908120805495151560ff19968716179055600b549091168152600d909252808220805484166001908117909155308352908220805484168217905561dead9091527fdc7fafdc41998a74ecacb8f8bd877011aba1f1d03a3a0d37a2e7879a393b1d6a8054909216179055620004836200047c6005546001600160a01b031690565b84620004e0565b505050505062000d99565b600580546001600160a01b038381166001600160a01b0319831681179093556040519116919082907f8be0079c531659141344cd1fd0a4f28419497f9722a3daafe3b4186f6b6457e090600090a35050565b6001600160a01b0382166200050c5760405163ec442f0560e01b81526000600482015260240162000096565b6200051a600083836200051e565b5050565b60008111620005825760405162461bcd60e51b815260206004820152602960248201527f5472616e7366657220616d6f756e74206d7573742062652067726561746572206044820152687468616e207a65726f60b81b606482015260840162000096565b6001600160a01b038316620005a3576200059e838383620008e7565b505050565b6001600160a01b038216620005bf576200059e838383620008e7565b6001600160a01b038316620006255760405162461bcd60e51b815260206004820152602560248201527f45524332303a207472616e736665722066726f6d20746865207a65726f206164604482015264647265737360d81b606482015260840162000096565b6001600160a01b038216620006895760405162461bcd60e51b815260206004820152602360248201527f45524332303a207472616e7366657220746f20746865207a65726f206164647260448201526265737360e81b606482015260840162000096565b600b54600160a01b900460ff1662000729576001600160a01b0383166000908152600c602052604090205460ff1680620006db57506001600160a01b0382166000908152600c602052604090205460ff165b620007295760405162461bcd60e51b815260206004820152601a60248201527f54726164696e67206973206e6f7420656e61626c656420796574000000000000604482015260640162000096565b6001600160a01b0383166000908152600d602052604090205460ff161580156200076c57506001600160a01b0382166000908152600d602052604090205460ff16155b15620007dd57600e54811115620007dd5760405162461bcd60e51b815260206004820152602e60248201527f5472616e7366657220616d6f756e742065786365656473206d6178207472616e60448201526d1cd858dd1a5bdb88185b5bdd5b9d60921b606482015260840162000096565b6001600160a01b0383166000908152600c602052604081205460ff161580156200082057506001600160a01b0383166000908152600c602052604090205460ff16155b156200089b576008546001600160a01b039081169084160362000863576064600954836200084f919062000d4d565b6200085b919062000d2a565b90506200089b565b6008546001600160a01b03908116908516036200089b576064600a54836200088c919062000d4d565b62000898919062000d2a565b90505b6000620008a9828462000d6d565b90508115620008cc57600b54620008cc9086906001600160a01b031684620008e7565b8015620008e057620008e0858583620008e7565b5050505050565b6001600160a01b038316620009165780600260008282546200090a919062000d83565b909155506200098a9050565b6001600160a01b038316600090815260208190526040902054818110156200096b5760405163391434e360e21b81526001600160a01b0385166004820152602481018290526044810183905260640162000096565b6001600160a01b03841660009081526020819052604090209082900390555b6001600160a01b038216620009a857600280548290039055620009c7565b6001600160a01b03821660009081526020819052604090208054820190555b816001600160a01b0316836001600160a01b03167fddf252ad1be2c89b69c2b068fc378daa952ba7f163c4a11628f55a4df523b3ef8360405162000a0d91815260200190565b60405180910390a3505050565b634e487b7160e01b600052604160045260246000fd5b600082601f83011262000a4257600080fd5b81516001600160401b038082111562000a5f5762000a5f62000a1a565b604051601f8301601f19908116603f0116810190828211818310171562000a8a5762000a8a62000a1a565b8160405283815260209250868385880101111562000aa757600080fd5b600091505b8382101562000acb578582018301518183018401529082019062000aac565b600093810190920192909252949350505050565b80516001600160a01b038116811462000af757600080fd5b919050565b600080600080600060a0868803121562000b1557600080fd5b85516001600160401b038082111562000b2d57600080fd5b62000b3b89838a0162000a30565b9650602088015191508082111562000b5257600080fd5b5062000b618882890162000a30565b9450506040860151925062000b796060870162000adf565b915062000b896080870162000adf565b90509295509295909350565b600181811c9082168062000baa57607f821691505b60208210810362000bcb57634e487b7160e01b600052602260045260246000fd5b50919050565b601f8211156200059e57600081815260208120601f850160051c8101602086101562000bfa5750805b601f850160051c820191505b8181101562000c1b5782815560010162000c06565b505050505050565b81516001600160401b0381111562000c3f5762000c3f62000a1a565b62000c578162000c50845462000b95565b8462000bd1565b602080601f83116001811462000c8f576000841562000c765750858301515b600019600386901b1c1916600185901b17855562000c1b565b600085815260208120601f198616915b8281101562000cc05788860151825594840194600190910190840162000c9f565b508582101562000cdf5787850151600019600388901b60f8161c191681555b5050505050600190811b01905550565b60006020828403121562000d0257600080fd5b62000d0d8262000adf565b9392505050565b634e487b7160e01b600052601160045260246000fd5b60008262000d4857634e487b7160e01b600052601260045260246000fd5b500490565b808202811582820484141762000d675762000d6762000d14565b92915050565b8181038181111562000d675762000d6762000d14565b8082018082111562000d675762000d6762000d14565b6117898062000da96000396000f3fe608060405234801561001057600080fd5b50600436106102275760003560e01c80638a8c523c11610130578063c6a30647116100b8578063e5c4d9b31161007c578063e5c4d9b3146104c9578063e7dbc23d146104dc578063ea414b28146104ef578063ec28438a14610502578063f2fde38b1461051557600080fd5b8063c6a306471461043f578063cb4ca63114610452578063d4c989d314610475578063db2e21bc14610488578063dd62ed3e1461049057600080fd5b806394488683116100ff57806394488683146103eb57806395d89b41146103fe578063a9059cbb14610406578063b8c9d25c14610419578063c21ebd071461042c57600080fd5b80638a8c523c146103b65780638c0b5e22146103be5780638da5cb5b146103c7578063917bb998146103d857600080fd5b8063313ce567116101b35780636ddd1713116101825780636ddd17131461035f5780636fb1896c1461037357806370a082311461037c578063715018a6146103a55780637df405a4146103ad57600080fd5b8063313ce56714610307578063351a964d146103165780634ada218b14610328578063658c27a91461033c57600080fd5b806318160ddd116101fa57806318160ddd1461029857806322a62e1e146102aa57806323b872dd146102d757806329691448146102ea5780632dc0562d146102f457600080fd5b806303fd2a451461022c578063064a59d01461025257806306fdde0314610270578063095ea7b314610285575b600080fd5b61023561dead81565b6040516001600160a01b0390911681526020015b60405180910390f35b600b54600160a01b900460ff165b6040519015158152602001610249565b610278610528565b604051610249919061142d565b610260610293366004611497565b6105ba565b6002545b604051908152602001610249565b600954600a54600b546040805193845260208401929092526001600160a01b031690820152606001610249565b6102606102e53660046114c1565b6105d4565b6102f26105f8565b005b600b54610235906001600160a01b031681565b60405160128152602001610249565b600b54600160a81b900460ff16610260565b600b5461026090600160a01b900460ff1681565b61026061034a3660046114fd565b600d6020526000908152604090205460ff1681565b600b5461026090600160a81b900460ff1681565b61029c60095481565b61029c61038a3660046114fd565b6001600160a01b031660009081526020819052604090205490565b6102f261069d565b61029c600a5481565b6102f26106b1565b61029c600e5481565b6005546001600160a01b0316610235565b6102f26103e6366004611497565b610751565b6102f26103f936600461152d565b6107f0565b6102786108da565b610260610414366004611497565b6108e9565b600854610235906001600160a01b031681565b600754610235906001600160a01b031681565b6102f261044d3660046115b3565b6108f7565b6102606104603660046114fd565b600c6020526000908152604090205460ff1681565b6102f26104833660046115b3565b61095f565b6102f26109bf565b61029c61049e3660046115ea565b6001600160a01b03918216600090815260016020908152604080832093909416825291909152205490565b6102f26104d736600461152d565b610a03565b6102f26104ea36600461161d565b610ae7565b6102f26104fd3660046114fd565b610bd8565b6102f261051036600461163f565b610c8a565b6102f26105233660046114fd565b610cf4565b60606003805461053790611658565b80601f016020809104026020016040519081016040528092919081815260200182805461056390611658565b80156105b05780601f10610585576101008083540402835291602001916105b0565b820191906000526020600020905b81548152906001019060200180831161059357829003601f168201915b5050505050905090565b6000336105c8818585610d2f565b60019150505b92915050565b6000336105e2858285610d3c565b6105ed858585610db5565b506001949350505050565b610600610e14565b600b54600160a81b900460ff161561065f5760405162461bcd60e51b815260206004820152601760248201527f5377617020697320616c726561647920656e61626c656400000000000000000060448201526064015b60405180910390fd5b600b805460ff60a81b1916600160a81b1790556040517f41c787961cb389554b90a8dbfb700790a3f278f50ba1d330c0b555d884789b5a90600090a1565b6106a5610e14565b6106af6000610e41565b565b6106b9610e14565b600b54600160a01b900460ff16156107135760405162461bcd60e51b815260206004820152601a60248201527f54726164696e6720697320616c726561647920656e61626c65640000000000006044820152606401610656565b600b805460ff60a01b1916600160a01b1790556040517f799663458a5ef2936f7fa0c99b3336c69c25890f82974f04e811e5bb359186c790600090a1565b610759610e14565b816001600160a01b031663a9059cbb61077a6005546001600160a01b031690565b6040516001600160e01b031960e084901b1681526001600160a01b039091166004820152602481018490526044016020604051808303816000875af11580156107c7573d6000803e3d6000fd5b505050506040513d601f19601f820116820180604052508101906107eb9190611692565b505050565b6107f8610e14565b60005b828110156108d45781600c600086868581811061081a5761081a6116af565b905060200201602081019061082f91906114fd565b6001600160a01b031681526020810191909152604001600020805460ff1916911515919091179055838382818110610869576108696116af565b905060200201602081019061087e91906114fd565b6001600160a01b03167fea5814d1cf99e5f6aee98da410ea4adcdbe5ded97855de3b25144b0898d0be4a836040516108ba911515815260200190565b60405180910390a2806108cc816116db565b9150506107fb565b50505050565b60606004805461053790611658565b6000336105c8818585610db5565b6108ff610e14565b6001600160a01b0382166000818152600c6020908152604091829020805460ff191685151590811790915591519182527fea5814d1cf99e5f6aee98da410ea4adcdbe5ded97855de3b25144b0898d0be4a91015b60405180910390a25050565b610967610e14565b6001600160a01b0382166000818152600d6020908152604091829020805460ff191685151590811790915591519182527f77a0fec448da1c340eddbf781d9ff0520a78d5a35fd142eaaec4e04a81157a0f9101610953565b6109c7610e14565b6005546040516001600160a01b03909116904780156108fc02916000818181858888f19350505050158015610a00573d6000803e3d6000fd5b50565b610a0b610e14565b60005b828110156108d45781600d6000868685818110610a2d57610a2d6116af565b9050602002016020810190610a4291906114fd565b6001600160a01b031681526020810191909152604001600020805460ff1916911515919091179055838382818110610a7c57610a7c6116af565b9050602002016020810190610a9191906114fd565b6001600160a01b03167f77a0fec448da1c340eddbf781d9ff0520a78d5a35fd142eaaec4e04a81157a0f83604051610acd911515815260200190565b60405180910390a280610adf816116db565b915050610a0e565b610aef610e14565b6064821115610b405760405162461bcd60e51b815260206004820152601b60248201527f53656c6c207461782063616e6e6f7420657863656564203130302500000000006044820152606401610656565b6064811115610b915760405162461bcd60e51b815260206004820152601a60248201527f427579207461782063616e6e6f742065786365656420313030250000000000006044820152606401610656565b6009829055600a81905560408051838152602081018390527f7c88e94758dc70e274e1246fc0100bcf6c6dd3ab73195c50fdf989f6df4b0d29910160405180910390a15050565b610be0610e14565b6001600160a01b038116610c405760405162461bcd60e51b815260206004820152602160248201527f5461782077616c6c65742063616e6e6f74206265207a65726f206164647265736044820152607360f81b6064820152608401610656565b600b80546001600160a01b0319166001600160a01b0383169081179091556040517f1797049ec5d8ec17fdce2660fb55e33695fd7ebbdb65726cc6d171c0e1c312c790600090a250565b610c92610e14565b6103e8610c9e60025490565b610ca891906116f4565b811015610cef5760405162461bcd60e51b81526020600482015260156024820152744d617820747820616d6f756e7420746f6f206c6f7760581b6044820152606401610656565b600e55565b610cfc610e14565b6001600160a01b038116610d2657604051631e4fbdf760e01b815260006004820152602401610656565b610a0081610e41565b6107eb8383836001610e93565b6001600160a01b038381166000908152600160209081526040808320938616835292905220546000198110156108d45781811015610da657604051637dc7a0d960e11b81526001600160a01b03841660048201526024810182905260448101839052606401610656565b6108d484848484036000610e93565b6001600160a01b038316610ddf57604051634b637e8f60e11b815260006004820152602401610656565b6001600160a01b038216610e095760405163ec442f0560e01b815260006004820152602401610656565b6107eb838383610f68565b6005546001600160a01b031633146106af5760405163118cdaa760e01b8152336004820152602401610656565b600580546001600160a01b038381166001600160a01b0319831681179093556040519116919082907f8be0079c531659141344cd1fd0a4f28419497f9722a3daafe3b4186f6b6457e090600090a35050565b6001600160a01b038416610ebd5760405163e602df0560e01b815260006004820152602401610656565b6001600160a01b038316610ee757604051634a1406b160e11b815260006004820152602401610656565b6001600160a01b03808516600090815260016020908152604080832093871683529290522082905580156108d457826001600160a01b0316846001600160a01b03167f8c5be1e5ebec7d5bd14f71427d1e84f3dd0314c0f7b2291e5b200ac8c7c3b92584604051610f5a91815260200190565b60405180910390a350505050565b60008111610fca5760405162461bcd60e51b815260206004820152602960248201527f5472616e7366657220616d6f756e74206d7573742062652067726561746572206044820152687468616e207a65726f60b81b6064820152608401610656565b6001600160a01b038316610fe3576107eb838383611303565b6001600160a01b038216610ffc576107eb838383611303565b6001600160a01b0383166110605760405162461bcd60e51b815260206004820152602560248201527f45524332303a207472616e736665722066726f6d20746865207a65726f206164604482015264647265737360d81b6064820152608401610656565b6001600160a01b0382166110c25760405162461bcd60e51b815260206004820152602360248201527f45524332303a207472616e7366657220746f20746865207a65726f206164647260448201526265737360e81b6064820152608401610656565b600b54600160a01b900460ff1661115e576001600160a01b0383166000908152600c602052604090205460ff168061111257506001600160a01b0382166000908152600c602052604090205460ff165b61115e5760405162461bcd60e51b815260206004820152601a60248201527f54726164696e67206973206e6f7420656e61626c6564207965740000000000006044820152606401610656565b6001600160a01b0383166000908152600d602052604090205460ff161580156111a057506001600160a01b0382166000908152600d602052604090205460ff16155b1561120e57600e5481111561120e5760405162461bcd60e51b815260206004820152602e60248201527f5472616e7366657220616d6f756e742065786365656473206d6178207472616e60448201526d1cd858dd1a5bdb88185b5bdd5b9d60921b6064820152608401610656565b6001600160a01b0383166000908152600c602052604081205460ff1615801561125057506001600160a01b0383166000908152600c602052604090205460ff16155b156112bf576008546001600160a01b039081169084160361128c5760646009548361127b9190611716565b61128591906116f4565b90506112bf565b6008546001600160a01b03908116908516036112bf576064600a54836112b29190611716565b6112bc91906116f4565b90505b60006112cb828461172d565b905081156112eb57600b546112eb9086906001600160a01b031684611303565b80156112fc576112fc858583611303565b5050505050565b6001600160a01b03831661132e5780600260008282546113239190611740565b909155506113a09050565b6001600160a01b038316600090815260208190526040902054818110156113815760405163391434e360e21b81526001600160a01b03851660048201526024810182905260448101839052606401610656565b6001600160a01b03841660009081526020819052604090209082900390555b6001600160a01b0382166113bc576002805482900390556113db565b6001600160a01b03821660009081526020819052604090208054820190555b816001600160a01b0316836001600160a01b03167fddf252ad1be2c89b69c2b068fc378daa952ba7f163c4a11628f55a4df523b3ef8360405161142091815260200190565b60405180910390a3505050565b600060208083528351808285015260005b8181101561145a5785810183015185820160400152820161143e565b506000604082860101526040601f19601f8301168501019250505092915050565b80356001600160a01b038116811461149257600080fd5b919050565b600080604083850312156114aa57600080fd5b6114b38361147b565b946020939093013593505050565b6000806000606084860312156114d657600080fd5b6114df8461147b565b92506114ed6020850161147b565b9150604084013590509250925092565b60006020828403121561150f57600080fd5b6115188261147b565b9392505050565b8015158114610a0057600080fd5b60008060006040848603121561154257600080fd5b833567ffffffffffffffff8082111561155a57600080fd5b818601915086601f83011261156e57600080fd5b81358181111561157d57600080fd5b8760208260051b850101111561159257600080fd5b602092830195509350508401356115a88161151f565b809150509250925092565b600080604083850312156115c657600080fd5b6115cf8361147b565b915060208301356115df8161151f565b809150509250929050565b600080604083850312156115fd57600080fd5b6116068361147b565b91506116146020840161147b565b90509250929050565b6000806040838503121561163057600080fd5b50508035926020909101359150565b60006020828403121561165157600080fd5b5035919050565b600181811c9082168061166c57607f821691505b60208210810361168c57634e487b7160e01b600052602260045260246000fd5b50919050565b6000602082840312156116a457600080fd5b81516115188161151f565b634e487b7160e01b600052603260045260246000fd5b634e487b7160e01b600052601160045260246000fd5b6000600182016116ed576116ed6116c5565b5060010190565b60008261171157634e487b7160e01b600052601260045260246000fd5b500490565b80820281158282048414176105ce576105ce6116c5565b818103818111156105ce576105ce6116c5565b808201808211156105ce576105ce6116c556fea2646970667358221220f88ec9c6894001a1ddd8e0728f45b09e842be087bbb08384edacb97270bd847d64736f6c63430008140033",
  "linkReferences": {},
  "deployedLinkReferences": {}
}