{
  "_format": "hh-sol-artifact-1",
  "contractName": "TokenWithSellTax",
  "sourceName": "contracts/TokenWithSellTax.sol",
  "abi": [
    {
      "inputs": [
        {
          "internalType": "string",
          "name": "name",
          "type": "string"
        },
        {
          "internalType": "string",
          "name": "symbol",
          "type": "string"
        },
        {
          "internalType": "uint256",
          "name": "totalSupply",
          "type": "uint256"
        },
        {
          "internalType": "address",
          "name": "_taxWallet",
          "type": "address"
        },
        {
          "internalType": "address",
          "name": "_pancakeRouter",
          "type": "address"
        }
      ],
      "stateMutability": "nonpayable",
      "type": "constructor"
    },
    {
      "inputs": [
        {
          "internalType": "address",
          "name": "spender",
          "type": "address"
        },
        {
          "internalType": "uint256",
          "name": "allowance",
          "type": "uint256"
        },
        {
          "internalType": "uint256",
          "name": "needed",
          "type": "uint256"
        }
      ],
      "name": "ERC20InsufficientAllowance",
      "type": "error"
    },
    {
      "inputs": [
        {
          "internalType": "address",
          "name": "sender",
          "type": "address"
        },
        {
          "internalType": "uint256",
          "name": "balance",
          "type": "uint256"
        },
        {
          "internalType": "uint256",
          "name": "needed",
          "type": "uint256"
        }
      ],
      "name": "ERC20InsufficientBalance",
      "type": "error"
    },
    {
      "inputs": [
        {
          "internalType": "address",
          "name": "approver",
          "type": "address"
        }
      ],
      "name": "ERC20InvalidApprover",
      "type": "error"
    },
    {
      "inputs": [
        {
          "internalType": "address",
          "name": "receiver",
          "type": "address"
        }
      ],
      "name": "ERC20InvalidReceiver",
      "type": "error"
    },
    {
      "inputs": [
        {
          "internalType": "address",
          "name": "sender",
          "type": "address"
        }
      ],
      "name": "ERC20InvalidSender",
      "type": "error"
    },
    {
      "inputs": [
        {
          "internalType": "address",
          "name": "spender",
          "type": "address"
        }
      ],
      "name": "ERC20InvalidSpender",
      "type": "error"
    },
    {
      "inputs": [
        {
          "internalType": "address",
          "name": "owner",
          "type": "address"
        }
      ],
      "name": "OwnableInvalidOwner",
      "type": "error"
    },
    {
      "inputs": [
        {
          "internalType": "address",
          "name": "account",
          "type": "address"
        }
      ],
      "name": "OwnableUnauthorizedAccount",
      "type": "error"
    },
    {
      "inputs": [],
      "name": "ReentrancyGuardReentrantCall",
      "type": "error"
    },
    {
      "anonymous": false,
      "inputs": [
        {
          "indexed": true,
          "internalType": "address",
          "name": "owner",
          "type": "address"
        },
        {
          "indexed": true,
          "internalType": "address",
          "name": "spender",
          "type": "address"
        },
        {
          "indexed": false,
          "internalType": "uint256",
          "name": "value",
          "type": "uint256"
        }
      ],
      "name": "Approval",
      "type": "event"
    },
    {
      "anonymous": false,
      "inputs": [
        {
          "indexed": true,
          "internalType": "address",
          "name": "account",
          "type": "address"
        },
        {
          "indexed": false,
          "internalType": "bool",
          "name": "excluded",
          "type": "bool"
        }
      ],
      "name": "ExcludedFromMaxTx",
      "type": "event"
    },
    {
      "anonymous": false,
      "inputs": [
        {
          "indexed": true,
          "internalType": "address",
          "name": "account",
          "type": "address"
        },
        {
          "indexed": false,
          "internalType": "bool",
          "name": "excluded",
          "type": "bool"
        }
      ],
      "name": "ExcludedFromTax",
      "type": "event"
    },
    {
      "anonymous": false,
      "inputs": [
        {
          "indexed": true,
          "internalType": "address",
          "name": "previousOwner",
          "type": "address"
        },
        {
          "indexed": true,
          "internalType": "address",
          "name": "newOwner",
          "type": "address"
        }
      ],
      "name": "OwnershipTransferred",
      "type": "event"
    },
    {
      "anonymous": false,
      "inputs": [
        {
          "indexed": false,
          "internalType": "uint256",
          "name": "sellTax",
          "type": "uint256"
        },
        {
          "indexed": false,
          "internalType": "uint256",
          "name": "buyTax",
          "type": "uint256"
        }
      ],
      "name": "TaxPercentagesUpdated",
      "type": "event"
    },
    {
      "anonymous": false,
      "inputs": [
        {
          "indexed": true,
          "internalType": "address",
          "name": "newWallet",
          "type": "address"
        }
      ],
      "name": "TaxWalletUpdated",
      "type": "event"
    },
    {
      "anonymous": false,
      "inputs": [
        {
          "indexed": true,
          "internalType": "address",
          "name": "from",
          "type": "address"
        },
        {
          "indexed": true,
          "internalType": "address",
          "name": "to",
          "type": "address"
        },
        {
          "indexed": false,
          "internalType": "uint256",
          "name": "value",
          "type": "uint256"
        }
      ],
      "name": "Transfer",
      "type": "event"
    },
    {
      "inputs": [],
      "name": "DEAD",
      "outputs": [
        {
          "internalType": "address",
          "name": "",
          "type": "address"
        }
      ],
      "stateMutability": "view",
      "type": "function"
    },
    {
      "inputs": [
        {
          "internalType": "address",
          "name": "owner",
          "type": "address"
        },
        {
          "internalType": "address",
          "name": "spender",
          "type": "address"
        }
      ],
      "name": "allowance",
      "outputs": [
        {
          "internalType": "uint256",
          "name": "",
          "type": "uint256"
        }
      ],
      "stateMutability": "view",
      "type": "function"
    },
    {
      "inputs": [
        {
          "internalType": "address",
          "name": "spender",
          "type": "address"
        },
        {
          "internalType": "uint256",
          "name": "value",
          "type": "uint256"
        }
      ],
      "name": "approve",
      "outputs": [
        {
          "internalType": "bool",
          "name": "",
          "type": "bool"
        }
      ],
      "stateMutability": "nonpayable",
      "type": "function"
    },
    {
      "inputs": [
        {
          "internalType": "address",
          "name": "account",
          "type": "address"
        }
      ],
      "name": "balanceOf",
      "outputs": [
        {
          "internalType": "uint256",
          "name": "",
          "type": "uint256"
        }
      ],
      "stateMutability": "view",
      "type": "function"
    },
    {
      "inputs": [],
      "name": "buyTaxPercent",
      "outputs": [
        {
          "internalType": "uint256",
          "name": "",
          "type": "uint256"
        }
      ],
      "stateMutability": "view",
      "type": "function"
    },
    {
      "inputs": [],
      "name": "decimals",
      "outputs": [
        {
          "internalType": "uint8",
          "name": "",
          "type": "uint8"
        }
      ],
      "stateMutability": "view",
      "type": "function"
    },
    {
      "inputs": [
        {
          "internalType": "address",
          "name": "account",
          "type": "address"
        },
        {
          "internalType": "bool",
          "name": "excluded",
          "type": "bool"
        }
      ],
      "name": "excludeFromMaxTx",
      "outputs": [],
      "stateMutability": "nonpayable",
      "type": "function"
    },
    {
      "inputs": [
        {
          "internalType": "address",
          "name": "account",
          "type": "address"
        },
        {
          "internalType": "bool",
          "name": "excluded",
          "type": "bool"
        }
      ],
      "name": "excludeFromTax",
      "outputs": [],
      "stateMutability": "nonpayable",
      "type": "function"
    },
    {
      "inputs": [
        {
          "internalType": "address",
          "name": "",
          "type": "address"
        }
      ],
      "name": "isExcludedFromMaxTx",
      "outputs": [
        {
          "internalType": "bool",
          "name": "",
          "type": "bool"
        }
      ],
      "stateMutability": "view",
      "type": "function"
    },
    {
      "inputs": [
        {
          "internalType": "address",
          "name": "",
          "type": "address"
        }
      ],
      "name": "isExcludedFromTax",
      "outputs": [
        {
          "internalType": "bool",
          "name": "",
          "type": "bool"
        }
      ],
      "stateMutability": "view",
      "type": "function"
    },
    {
      "inputs": [],
      "name": "name",
      "outputs": [
        {
          "internalType": "string",
          "name": "",
          "type": "string"
        }
      ],
      "stateMutability": "view",
      "type": "function"
    },
    {
      "inputs": [],
      "name": "owner",
      "outputs": [
        {
          "internalType": "address",
          "name": "",
          "type": "address"
        }
      ],
      "stateMutability": "view",
      "type": "function"
    },
    {
      "inputs": [],
      "name": "pancakePair",
      "outputs": [
        {
          "internalType": "address",
          "name": "",
          "type": "address"
        }
      ],
      "stateMutability": "view",
      "type": "function"
    },
    {
      "inputs": [],
      "name": "pancakeRouter",
      "outputs": [
        {
          "internalType": "contract IPancakeRouter",
          "name": "",
          "type": "address"
        }
      ],
      "stateMutability": "view",
      "type": "function"
    },
    {
      "inputs": [],
      "name": "renounceOwnership",
      "outputs": [],
      "stateMutability": "nonpayable",
      "type": "function"
    },
    {
      "inputs": [],
      "name": "sellTaxPercent",
      "outputs": [
        {
          "internalType": "uint256",
          "name": "",
          "type": "uint256"
        }
      ],
      "stateMutability": "view",
      "type": "function"
    },
    {
      "inputs": [],
      "name": "symbol",
      "outputs": [
        {
          "internalType": "string",
          "name": "",
          "type": "string"
        }
      ],
      "stateMutability": "view",
      "type": "function"
    },
    {
      "inputs": [],
      "name": "taxWallet",
      "outputs": [
        {
          "internalType": "address",
          "name": "",
          "type": "address"
        }
      ],
      "stateMutability": "view",
      "type": "function"
    },
    {
      "inputs": [],
      "name": "totalSupply",
      "outputs": [
        {
          "internalType": "uint256",
          "name": "",
          "type": "uint256"
        }
      ],
      "stateMutability": "view",
      "type": "function"
    },
    {
      "inputs": [
        {
          "internalType": "address",
          "name": "to",
          "type": "address"
        },
        {
          "internalType": "uint256",
          "name": "value",
          "type": "uint256"
        }
      ],
      "name": "transfer",
      "outputs": [
        {
          "internalType": "bool",
          "name": "",
          "type": "bool"
        }
      ],
      "stateMutability": "nonpayable",
      "type": "function"
    },
    {
      "inputs": [
        {
          "internalType": "address",
          "name": "from",
          "type": "address"
        },
        {
          "internalType": "address",
          "name": "to",
          "type": "address"
        },
        {
          "internalType": "uint256",
          "name": "value",
          "type": "uint256"
        }
      ],
      "name": "transferFrom",
      "outputs": [
        {
          "internalType": "bool",
          "name": "",
          "type": "bool"
        }
      ],
      "stateMutability": "nonpayable",
      "type": "function"
    },
    {
      "inputs": [
        {
          "internalType": "address",
          "name": "newOwner",
          "type": "address"
        }
      ],
      "name": "transferOwnership",
      "outputs": [],
      "stateMutability": "nonpayable",
      "type": "function"
    }
  ],
  "bytecode": "0x608060405260636009556000600a553480156200001b57600080fd5b50604051620018d1380380620018d18339810160408190526200003e91620008f3565b33858560036200004f838262000a1a565b5060046200005e828262000a1a565b5050506001600160a01b0381166200009157604051631e4fbdf760e01b8152600060048201526024015b60405180910390fd5b6200009c81620003f5565b5060016006556001600160a01b038216620001045760405162461bcd60e51b815260206004820152602160248201527f5461782077616c6c65742063616e6e6f74206265207a65726f206164647265736044820152607360f81b606482015260840162000088565b6001600160a01b0381166200015c5760405162461bcd60e51b815260206004820152601d60248201527f526f757465722063616e6e6f74206265207a65726f2061646472657373000000604482015260640162000088565b600b80546001600160a01b038085166001600160a01b0319928316179092556007805492841692909116821790556040805163c45a015560e01b8152905163c45a0155916004818101926020929091908290030181865afa158015620001c6573d6000803e3d6000fd5b505050506040513d601f19601f82011682018060405250810190620001ec919062000ae6565b6001600160a01b031663c9c6539630600760009054906101000a90046001600160a01b03166001600160a01b031663ad5c46486040518163ffffffff1660e01b8152600401602060405180830381865afa1580156200024f573d6000803e3d6000fd5b505050506040513d601f19601f8201168201806040525081019062000275919062000ae6565b6040516001600160e01b031960e085901b1681526001600160a01b039283166004820152911660248201526044016020604051808303816000875af1158015620002c3573d6000803e3d6000fd5b505050506040513d601f19601f82011682018060405250810190620002e9919062000ae6565b600880546001600160a01b0319166001600160a01b039283161790556005805482166000908152600c60209081526040808320805460ff199081166001908117909255600b80548816865283862080548316841790553080875284872080548416851790557f45117a726ea4f344045dc210793664a28d2d320b7e03f6bffdae553d24c3586c8054841685179055875489168752600d909552838620805483168417905554871685528285208054821683179055928452908320805483168217905561dead9092527fdc7fafdc41998a74ecacb8f8bd877011aba1f1d03a3a0d37a2e7879a393b1d6a8054909116909117905554620003ea91168462000447565b505050505062000b90565b600580546001600160a01b038381166001600160a01b0319831681179093556040519116919082907f8be0079c531659141344cd1fd0a4f28419497f9722a3daafe3b4186f6b6457e090600090a35050565b6001600160a01b038216620004735760405163ec442f0560e01b81526000600482015260240162000088565b620004816000838362000485565b5050565b60008111620004e95760405162461bcd60e51b815260206004820152602960248201527f5472616e7366657220616d6f756e74206d7573742062652067726561746572206044820152687468616e207a65726f60b81b606482015260840162000088565b6001600160a01b0383166200050a5762000505838383620006de565b505050565b6001600160a01b038316620005705760405162461bcd60e51b815260206004820152602560248201527f45524332303a207472616e736665722066726f6d20746865207a65726f206164604482015264647265737360d81b606482015260840162000088565b6001600160a01b038216620005d45760405162461bcd60e51b815260206004820152602360248201527f45524332303a207472616e7366657220746f20746865207a65726f206164647260448201526265737360e81b606482015260840162000088565b6001600160a01b0383166000908152600c602052604081205460ff161580156200061757506001600160a01b0383166000908152600c602052604090205460ff16155b1562000692576008546001600160a01b03908116908416036200065a5760646009548362000646919062000b21565b62000652919062000b41565b905062000692565b6008546001600160a01b039081169085160362000692576064600a548362000683919062000b21565b6200068f919062000b41565b90505b6000620006a0828462000b64565b90508115620006c357600b54620006c39086906001600160a01b031684620006de565b8015620006d757620006d7858583620006de565b5050505050565b6001600160a01b0383166200070d57806002600082825462000701919062000b7a565b90915550620007819050565b6001600160a01b03831660009081526020819052604090205481811015620007625760405163391434e360e21b81526001600160a01b0385166004820152602481018290526044810183905260640162000088565b6001600160a01b03841660009081526020819052604090209082900390555b6001600160a01b0382166200079f57600280548290039055620007be565b6001600160a01b03821660009081526020819052604090208054820190555b816001600160a01b0316836001600160a01b03167fddf252ad1be2c89b69c2b068fc378daa952ba7f163c4a11628f55a4df523b3ef836040516200080491815260200190565b60405180910390a3505050565b634e487b7160e01b600052604160045260246000fd5b600082601f8301126200083957600080fd5b81516001600160401b038082111562000856576200085662000811565b604051601f8301601f19908116603f0116810190828211818310171562000881576200088162000811565b816040528381526020925086838588010111156200089e57600080fd5b600091505b83821015620008c25785820183015181830184015290820190620008a3565b600093810190920192909252949350505050565b80516001600160a01b0381168114620008ee57600080fd5b919050565b600080600080600060a086880312156200090c57600080fd5b85516001600160401b03808211156200092457600080fd5b6200093289838a0162000827565b965060208801519150808211156200094957600080fd5b50620009588882890162000827565b945050604086015192506200097060608701620008d6565b91506200098060808701620008d6565b90509295509295909350565b600181811c90821680620009a157607f821691505b602082108103620009c257634e487b7160e01b600052602260045260246000fd5b50919050565b601f8211156200050557600081815260208120601f850160051c81016020861015620009f15750805b601f850160051c820191505b8181101562000a1257828155600101620009fd565b505050505050565b81516001600160401b0381111562000a365762000a3662000811565b62000a4e8162000a4784546200098c565b84620009c8565b602080601f83116001811462000a86576000841562000a6d5750858301515b600019600386901b1c1916600185901b17855562000a12565b600085815260208120601f198616915b8281101562000ab75788860151825594840194600190910190840162000a96565b508582101562000ad65787850151600019600388901b60f8161c191681555b5050505050600190811b01905550565b60006020828403121562000af957600080fd5b62000b0482620008d6565b9392505050565b634e487b7160e01b600052601160045260246000fd5b808202811582820484141762000b3b5762000b3b62000b0b565b92915050565b60008262000b5f57634e487b7160e01b600052601260045260246000fd5b500490565b8181038181111562000b3b5762000b3b62000b0b565b8082018082111562000b3b5762000b3b62000b0b565b610d318062000ba06000396000f3fe608060405234801561001057600080fd5b50600436106101425760003560e01c80637df405a4116100b8578063c21ebd071161007c578063c21ebd0714610293578063c6a30647146102a6578063cb4ca631146102b9578063d4c989d3146102dc578063dd62ed3e146102ef578063f2fde38b1461032857600080fd5b80637df405a41461024b5780638da5cb5b1461025457806395d89b4114610265578063a9059cbb1461026d578063b8c9d25c1461028057600080fd5b80632dc0562d1161010a5780632dc0562d146101ca578063313ce567146101dd578063658c27a9146101ec5780636fb1896c1461020f57806370a0823114610218578063715018a61461024157600080fd5b806303fd2a451461014757806306fdde031461016d578063095ea7b31461018257806318160ddd146101a557806323b872dd146101b7575b600080fd5b61015061dead81565b6040516001600160a01b0390911681526020015b60405180910390f35b61017561033b565b6040516101649190610aeb565b610195610190366004610b55565b6103cd565b6040519015158152602001610164565b6002545b604051908152602001610164565b6101956101c5366004610b7f565b6103e7565b600b54610150906001600160a01b031681565b60405160128152602001610164565b6101956101fa366004610bbb565b600d6020526000908152604090205460ff1681565b6101a960095481565b6101a9610226366004610bbb565b6001600160a01b031660009081526020819052604090205490565b61024961040b565b005b6101a9600a5481565b6005546001600160a01b0316610150565b61017561041f565b61019561027b366004610b55565b61042e565b600854610150906001600160a01b031681565b600754610150906001600160a01b031681565b6102496102b4366004610bdd565b61043c565b6101956102c7366004610bbb565b600c6020526000908152604090205460ff1681565b6102496102ea366004610bdd565b6104a4565b6101a96102fd366004610c19565b6001600160a01b03918216600090815260016020908152604080832093909416825291909152205490565b610249610336366004610bbb565b610504565b60606003805461034a90610c4c565b80601f016020809104026020016040519081016040528092919081815260200182805461037690610c4c565b80156103c35780601f10610398576101008083540402835291602001916103c3565b820191906000526020600020905b8154815290600101906020018083116103a657829003601f168201915b5050505050905090565b6000336103db818585610547565b60019150505b92915050565b6000336103f5858285610559565b6104008585856105d8565b506001949350505050565b610413610637565b61041d6000610664565b565b60606004805461034a90610c4c565b6000336103db8185856105d8565b610444610637565b6001600160a01b0382166000818152600c6020908152604091829020805460ff191685151590811790915591519182527fea5814d1cf99e5f6aee98da410ea4adcdbe5ded97855de3b25144b0898d0be4a91015b60405180910390a25050565b6104ac610637565b6001600160a01b0382166000818152600d6020908152604091829020805460ff191685151590811790915591519182527f77a0fec448da1c340eddbf781d9ff0520a78d5a35fd142eaaec4e04a81157a0f9101610498565b61050c610637565b6001600160a01b03811661053b57604051631e4fbdf760e01b8152600060048201526024015b60405180910390fd5b61054481610664565b50565b61055483838360016106b6565b505050565b6001600160a01b038381166000908152600160209081526040808320938616835292905220546000198110156105d257818110156105c357604051637dc7a0d960e11b81526001600160a01b03841660048201526024810182905260448101839052606401610532565b6105d2848484840360006106b6565b50505050565b6001600160a01b03831661060257604051634b637e8f60e11b815260006004820152602401610532565b6001600160a01b03821661062c5760405163ec442f0560e01b815260006004820152602401610532565b61055483838361078b565b6005546001600160a01b0316331461041d5760405163118cdaa760e01b8152336004820152602401610532565b600580546001600160a01b038381166001600160a01b0319831681179093556040519116919082907f8be0079c531659141344cd1fd0a4f28419497f9722a3daafe3b4186f6b6457e090600090a35050565b6001600160a01b0384166106e05760405163e602df0560e01b815260006004820152602401610532565b6001600160a01b03831661070a57604051634a1406b160e11b815260006004820152602401610532565b6001600160a01b03808516600090815260016020908152604080832093871683529290522082905580156105d257826001600160a01b0316846001600160a01b03167f8c5be1e5ebec7d5bd14f71427d1e84f3dd0314c0f7b2291e5b200ac8c7c3b9258460405161077d91815260200190565b60405180910390a350505050565b600081116107ed5760405162461bcd60e51b815260206004820152602960248201527f5472616e7366657220616d6f756e74206d7573742062652067726561746572206044820152687468616e207a65726f60b81b6064820152608401610532565b6001600160a01b038316610806576105548383836109c1565b6001600160a01b03831661086a5760405162461bcd60e51b815260206004820152602560248201527f45524332303a207472616e736665722066726f6d20746865207a65726f206164604482015264647265737360d81b6064820152608401610532565b6001600160a01b0382166108cc5760405162461bcd60e51b815260206004820152602360248201527f45524332303a207472616e7366657220746f20746865207a65726f206164647260448201526265737360e81b6064820152608401610532565b6001600160a01b0383166000908152600c602052604081205460ff1615801561090e57506001600160a01b0383166000908152600c602052604090205460ff16155b1561097d576008546001600160a01b039081169084160361094a576064600954836109399190610c9c565b6109439190610cb3565b905061097d565b6008546001600160a01b039081169085160361097d576064600a54836109709190610c9c565b61097a9190610cb3565b90505b60006109898284610cd5565b905081156109a957600b546109a99086906001600160a01b0316846109c1565b80156109ba576109ba8585836109c1565b5050505050565b6001600160a01b0383166109ec5780600260008282546109e19190610ce8565b90915550610a5e9050565b6001600160a01b03831660009081526020819052604090205481811015610a3f5760405163391434e360e21b81526001600160a01b03851660048201526024810182905260448101839052606401610532565b6001600160a01b03841660009081526020819052604090209082900390555b6001600160a01b038216610a7a57600280548290039055610a99565b6001600160a01b03821660009081526020819052604090208054820190555b816001600160a01b0316836001600160a01b03167fddf252ad1be2c89b69c2b068fc378daa952ba7f163c4a11628f55a4df523b3ef83604051610ade91815260200190565b60405180910390a3505050565b600060208083528351808285015260005b81811015610b1857858101830151858201604001528201610afc565b506000604082860101526040601f19601f8301168501019250505092915050565b80356001600160a01b0381168114610b5057600080fd5b919050565b60008060408385031215610b6857600080fd5b610b7183610b39565b946020939093013593505050565b600080600060608486031215610b9457600080fd5b610b9d84610b39565b9250610bab60208501610b39565b9150604084013590509250925092565b600060208284031215610bcd57600080fd5b610bd682610b39565b9392505050565b60008060408385031215610bf057600080fd5b610bf983610b39565b915060208301358015158114610c0e57600080fd5b809150509250929050565b60008060408385031215610c2c57600080fd5b610c3583610b39565b9150610c4360208401610b39565b90509250929050565b600181811c90821680610c6057607f821691505b602082108103610c8057634e487b7160e01b600052602260045260246000fd5b50919050565b634e487b7160e01b600052601160045260246000fd5b80820281158282048414176103e1576103e1610c86565b600082610cd057634e487b7160e01b600052601260045260246000fd5b500490565b818103818111156103e1576103e1610c86565b808201808211156103e1576103e1610c8656fea2646970667358221220dd69087e2cad45b0a7f463b94a4587134ce522e0c6fa8dfab2331f7cc1f7193164736f6c63430008140033",
  "linkReferences": {},
  "deployedLinkReferences": {}
}